{
	"contracts/ShopContract.sol": {
		"PaymentContract": {
			"abi": [
				{
					"inputs": [
						{
							"internalType": "bytes32",
							"name": "txHash",
							"type": "bytes32"
						}
					],
					"name": "confirmPayment",
					"outputs": [],
					"stateMutability": "nonpayable",
					"type": "function"
				},
				{
					"inputs": [
						{
							"internalType": "address",
							"name": "seller",
							"type": "address"
						}
					],
					"name": "createPayment",
					"outputs": [
						{
							"internalType": "uint256",
							"name": "",
							"type": "uint256"
						}
					],
					"stateMutability": "payable",
					"type": "function"
				},
				{
					"inputs": [],
					"name": "nextPaymentId",
					"outputs": [
						{
							"internalType": "uint256",
							"name": "",
							"type": "uint256"
						}
					],
					"stateMutability": "view",
					"type": "function"
				},
				{
					"inputs": [
						{
							"internalType": "uint256",
							"name": "",
							"type": "uint256"
						}
					],
					"name": "payments",
					"outputs": [
						{
							"internalType": "uint256",
							"name": "amount",
							"type": "uint256"
						},
						{
							"internalType": "address",
							"name": "buyer",
							"type": "address"
						},
						{
							"internalType": "address",
							"name": "seller",
							"type": "address"
						},
						{
							"internalType": "bool",
							"name": "isCompleted",
							"type": "bool"
						}
					],
					"stateMutability": "view",
					"type": "function"
				},
				{
					"inputs": [
						{
							"internalType": "bytes32",
							"name": "txHash",
							"type": "bytes32"
						},
						{
							"internalType": "uint256",
							"name": "paymentId",
							"type": "uint256"
						}
					],
					"name": "storeTransactionHash",
					"outputs": [],
					"stateMutability": "nonpayable",
					"type": "function"
				},
				{
					"inputs": [
						{
							"internalType": "bytes32",
							"name": "",
							"type": "bytes32"
						}
					],
					"name": "transactions",
					"outputs": [
						{
							"internalType": "uint256",
							"name": "",
							"type": "uint256"
						}
					],
					"stateMutability": "view",
					"type": "function"
				}
			],
			"devdoc": {
				"kind": "dev",
				"methods": {},
				"version": 1
			},
			"evm": {
				"assembly": "    /* \"contracts/ShopContract.sol\":60:1670  contract PaymentContract {... */\n  mstore(0x40, 0x80)\n  callvalue\n  dup1\n  iszero\n  tag_1\n  jumpi\n  0x00\n  dup1\n  revert\ntag_1:\n  pop\n  dataSize(sub_0)\n  dup1\n  dataOffset(sub_0)\n  0x00\n  codecopy\n  0x00\n  return\nstop\n\nsub_0: assembly {\n        /* \"contracts/ShopContract.sol\":60:1670  contract PaymentContract {... */\n      mstore(0x40, 0x80)\n      jumpi(tag_1, lt(calldatasize, 0x04))\n      shr(0xe0, calldataload(0x00))\n      dup1\n      0x3611d088\n      eq\n      tag_2\n      jumpi\n      dup1\n      0x455cb50d\n      eq\n      tag_3\n      jumpi\n      dup1\n      0x642f2eaf\n      eq\n      tag_4\n      jumpi\n      dup1\n      0x87d81789\n      eq\n      tag_5\n      jumpi\n      dup1\n      0x9b22b920\n      eq\n      tag_6\n      jumpi\n      dup1\n      0xe93512e2\n      eq\n      tag_7\n      jumpi\n    tag_1:\n      0x00\n      dup1\n      revert\n        /* \"contracts/ShopContract.sol\":1055:1667  function confirmPayment(bytes32 txHash) public {... */\n    tag_2:\n      callvalue\n      dup1\n      iszero\n      tag_8\n      jumpi\n      0x00\n      dup1\n      revert\n    tag_8:\n      pop\n      tag_9\n      0x04\n      dup1\n      calldatasize\n      sub\n      dup2\n      add\n      swap1\n      tag_10\n      swap2\n      swap1\n      tag_11\n      jump\t// in\n    tag_10:\n      tag_12\n      jump\t// in\n    tag_9:\n      stop\n        /* \"contracts/ShopContract.sol\":724:1045  function storeTransactionHash(bytes32 txHash, uint paymentId) public {... */\n    tag_3:\n      callvalue\n      dup1\n      iszero\n      tag_13\n      jumpi\n      0x00\n      dup1\n      revert\n    tag_13:\n      pop\n      tag_14\n      0x04\n      dup1\n      calldatasize\n      sub\n      dup2\n      add\n      swap1\n      tag_15\n      swap2\n      swap1\n      tag_16\n      jump\t// in\n    tag_15:\n      tag_17\n      jump\t// in\n    tag_14:\n      stop\n        /* \"contracts/ShopContract.sol\":276:320  mapping(bytes32 => uint) public transactions */\n    tag_4:\n      callvalue\n      dup1\n      iszero\n      tag_18\n      jumpi\n      0x00\n      dup1\n      revert\n    tag_18:\n      pop\n      tag_19\n      0x04\n      dup1\n      calldatasize\n      sub\n      dup2\n      add\n      swap1\n      tag_20\n      swap2\n      swap1\n      tag_11\n      jump\t// in\n    tag_20:\n      tag_21\n      jump\t// in\n    tag_19:\n      mload(0x40)\n      tag_22\n      swap2\n      swap1\n      tag_23\n      jump\t// in\n    tag_22:\n      mload(0x40)\n      dup1\n      swap2\n      sub\n      swap1\n      return\n        /* \"contracts/ShopContract.sol\":221:261  mapping(uint => Payment) public payments */\n    tag_5:\n      callvalue\n      dup1\n      iszero\n      tag_24\n      jumpi\n      0x00\n      dup1\n      revert\n    tag_24:\n      pop\n      tag_25\n      0x04\n      dup1\n      calldatasize\n      sub\n      dup2\n      add\n      swap1\n      tag_26\n      swap2\n      swap1\n      tag_27\n      jump\t// in\n    tag_26:\n      tag_28\n      jump\t// in\n    tag_25:\n      mload(0x40)\n      tag_29\n      swap5\n      swap4\n      swap3\n      swap2\n      swap1\n      tag_30\n      jump\t// in\n    tag_29:\n      mload(0x40)\n      dup1\n      swap2\n      sub\n      swap1\n      return\n        /* \"contracts/ShopContract.sol\":332:357  uint public nextPaymentId */\n    tag_6:\n      callvalue\n      dup1\n      iszero\n      tag_31\n      jumpi\n      0x00\n      dup1\n      revert\n    tag_31:\n      pop\n      tag_32\n      tag_33\n      jump\t// in\n    tag_32:\n      mload(0x40)\n      tag_34\n      swap2\n      swap1\n      tag_23\n      jump\t// in\n    tag_34:\n      mload(0x40)\n      dup1\n      swap2\n      sub\n      swap1\n      return\n        /* \"contracts/ShopContract.sol\":392:714  function createPayment(address seller) public payable returns (uint) {... */\n    tag_7:\n      tag_35\n      0x04\n      dup1\n      calldatasize\n      sub\n      dup2\n      add\n      swap1\n      tag_36\n      swap2\n      swap1\n      tag_37\n      jump\t// in\n    tag_36:\n      tag_38\n      jump\t// in\n    tag_35:\n      mload(0x40)\n      tag_39\n      swap2\n      swap1\n      tag_23\n      jump\t// in\n    tag_39:\n      mload(0x40)\n      dup1\n      swap2\n      sub\n      swap1\n      return\n        /* \"contracts/ShopContract.sol\":1055:1667  function confirmPayment(bytes32 txHash) public {... */\n    tag_12:\n        /* \"contracts/ShopContract.sol\":1113:1127  uint paymentId */\n      0x00\n        /* \"contracts/ShopContract.sol\":1130:1142  transactions */\n      0x01\n        /* \"contracts/ShopContract.sol\":1130:1150  transactions[txHash] */\n      0x00\n        /* \"contracts/ShopContract.sol\":1143:1149  txHash */\n      dup4\n        /* \"contracts/ShopContract.sol\":1130:1150  transactions[txHash] */\n      dup2\n      mstore\n      0x20\n      add\n      swap1\n      dup2\n      mstore\n      0x20\n      add\n      0x00\n      keccak256\n      sload\n        /* \"contracts/ShopContract.sol\":1113:1150  uint paymentId = transactions[txHash] */\n      swap1\n      pop\n        /* \"contracts/ShopContract.sol\":1192:1215  Payment storage payment */\n      0x00\n        /* \"contracts/ShopContract.sol\":1218:1226  payments */\n      dup1\n        /* \"contracts/ShopContract.sol\":1218:1237  payments[paymentId] */\n      0x00\n        /* \"contracts/ShopContract.sol\":1227:1236  paymentId */\n      dup4\n        /* \"contracts/ShopContract.sol\":1218:1237  payments[paymentId] */\n      dup2\n      mstore\n      0x20\n      add\n      swap1\n      dup2\n      mstore\n      0x20\n      add\n      0x00\n      keccak256\n        /* \"contracts/ShopContract.sol\":1192:1237  Payment storage payment = payments[paymentId] */\n      swap1\n      pop\n        /* \"contracts/ShopContract.sol\":1307:1308  0 */\n      0x00\n        /* \"contracts/ShopContract.sol\":1281:1309  payment.seller != address(0) */\n      0xffffffffffffffffffffffffffffffffffffffff\n      and\n        /* \"contracts/ShopContract.sol\":1281:1288  payment */\n      dup2\n        /* \"contracts/ShopContract.sol\":1281:1295  payment.seller */\n      0x02\n      add\n      0x00\n      swap1\n      sload\n      swap1\n      0x0100\n      exp\n      swap1\n      div\n      0xffffffffffffffffffffffffffffffffffffffff\n      and\n        /* \"contracts/ShopContract.sol\":1281:1309  payment.seller != address(0) */\n      0xffffffffffffffffffffffffffffffffffffffff\n      and\n      sub\n        /* \"contracts/ShopContract.sol\":1273:1336  require(payment.seller != address(0), \"Payment does not exist\") */\n      tag_41\n      jumpi\n      mload(0x40)\n      0x08c379a000000000000000000000000000000000000000000000000000000000\n      dup2\n      mstore\n      0x04\n      add\n      tag_42\n      swap1\n      tag_43\n      jump\t// in\n    tag_42:\n      mload(0x40)\n      dup1\n      swap2\n      sub\n      swap1\n      revert\n    tag_41:\n        /* \"contracts/ShopContract.sol\":1377:1387  msg.sender */\n      caller\n        /* \"contracts/ShopContract.sol\":1360:1387  payment.buyer == msg.sender */\n      0xffffffffffffffffffffffffffffffffffffffff\n      and\n        /* \"contracts/ShopContract.sol\":1360:1367  payment */\n      dup2\n        /* \"contracts/ShopContract.sol\":1360:1373  payment.buyer */\n      0x01\n      add\n      0x00\n      swap1\n      sload\n      swap1\n      0x0100\n      exp\n      swap1\n      div\n      0xffffffffffffffffffffffffffffffffffffffff\n      and\n        /* \"contracts/ShopContract.sol\":1360:1387  payment.buyer == msg.sender */\n      0xffffffffffffffffffffffffffffffffffffffff\n      and\n      eq\n        /* \"contracts/ShopContract.sol\":1352:1406  require(payment.buyer == msg.sender, \"Not authorized\") */\n      tag_44\n      jumpi\n      mload(0x40)\n      0x08c379a000000000000000000000000000000000000000000000000000000000\n      dup2\n      mstore\n      0x04\n      add\n      tag_45\n      swap1\n      tag_46\n      jump\t// in\n    tag_45:\n      mload(0x40)\n      dup1\n      swap2\n      sub\n      swap1\n      revert\n    tag_44:\n        /* \"contracts/ShopContract.sol\":1440:1447  payment */\n      dup1\n        /* \"contracts/ShopContract.sol\":1440:1459  payment.isCompleted */\n      0x02\n      add\n      0x14\n      swap1\n      sload\n      swap1\n      0x0100\n      exp\n      swap1\n      div\n      0xff\n      and\n        /* \"contracts/ShopContract.sol\":1439:1459  !payment.isCompleted */\n      iszero\n        /* \"contracts/ShopContract.sol\":1431:1489  require(!payment.isCompleted, \"Payment already completed\") */\n      tag_47\n      jumpi\n      mload(0x40)\n      0x08c379a000000000000000000000000000000000000000000000000000000000\n      dup2\n      mstore\n      0x04\n      add\n      tag_48\n      swap1\n      tag_49\n      jump\t// in\n    tag_48:\n      mload(0x40)\n      dup1\n      swap2\n      sub\n      swap1\n      revert\n    tag_47:\n        /* \"contracts/ShopContract.sol\":1534:1538  true */\n      0x01\n        /* \"contracts/ShopContract.sol\":1512:1519  payment */\n      dup2\n        /* \"contracts/ShopContract.sol\":1512:1531  payment.isCompleted */\n      0x02\n      add\n      0x14\n        /* \"contracts/ShopContract.sol\":1512:1538  payment.isCompleted = true */\n      0x0100\n      exp\n      dup2\n      sload\n      dup2\n      0xff\n      mul\n      not\n      and\n      swap1\n      dup4\n      iszero\n      iszero\n      mul\n      or\n      swap1\n      sstore\n      pop\n        /* \"contracts/ShopContract.sol\":1599:1606  payment */\n      dup1\n        /* \"contracts/ShopContract.sol\":1599:1613  payment.seller */\n      0x02\n      add\n      0x00\n      swap1\n      sload\n      swap1\n      0x0100\n      exp\n      swap1\n      div\n      0xffffffffffffffffffffffffffffffffffffffff\n      and\n        /* \"contracts/ShopContract.sol\":1591:1623  payable(payment.seller).transfer */\n      0xffffffffffffffffffffffffffffffffffffffff\n      and\n        /* \"contracts/ShopContract.sol\":1591:1639  payable(payment.seller).transfer(payment.amount) */\n      0x08fc\n        /* \"contracts/ShopContract.sol\":1624:1631  payment */\n      dup3\n        /* \"contracts/ShopContract.sol\":1624:1638  payment.amount */\n      0x00\n      add\n      sload\n        /* \"contracts/ShopContract.sol\":1591:1639  payable(payment.seller).transfer(payment.amount) */\n      swap1\n      dup2\n      iszero\n      mul\n      swap1\n      mload(0x40)\n      0x00\n      mload(0x40)\n      dup1\n      dup4\n      sub\n      dup2\n      dup6\n      dup9\n      dup9\n      call\n      swap4\n      pop\n      pop\n      pop\n      pop\n      iszero\n      dup1\n      iszero\n      tag_51\n      jumpi\n      returndatasize\n      0x00\n      dup1\n      returndatacopy\n      revert(0x00, returndatasize)\n    tag_51:\n      pop\n        /* \"contracts/ShopContract.sol\":1102:1667  {... */\n      pop\n      pop\n        /* \"contracts/ShopContract.sol\":1055:1667  function confirmPayment(bytes32 txHash) public {... */\n      pop\n      jump\t// out\n        /* \"contracts/ShopContract.sol\":724:1045  function storeTransactionHash(bytes32 txHash, uint paymentId) public {... */\n    tag_17:\n        /* \"contracts/ShopContract.sol\":836:837  0 */\n      0x00\n        /* \"contracts/ShopContract.sol\":812:824  transactions */\n      0x01\n        /* \"contracts/ShopContract.sol\":812:832  transactions[txHash] */\n      0x00\n        /* \"contracts/ShopContract.sol\":825:831  txHash */\n      dup5\n        /* \"contracts/ShopContract.sol\":812:832  transactions[txHash] */\n      dup2\n      mstore\n      0x20\n      add\n      swap1\n      dup2\n      mstore\n      0x20\n      add\n      0x00\n      keccak256\n      sload\n        /* \"contracts/ShopContract.sol\":812:837  transactions[txHash] == 0 */\n      eq\n        /* \"contracts/ShopContract.sol\":804:873  require(transactions[txHash] == 0, \"Transaction hash already exists\") */\n      tag_53\n      jumpi\n      mload(0x40)\n      0x08c379a000000000000000000000000000000000000000000000000000000000\n      dup2\n      mstore\n      0x04\n      add\n      tag_54\n      swap1\n      tag_55\n      jump\t// in\n    tag_54:\n      mload(0x40)\n      dup1\n      swap2\n      sub\n      swap1\n      revert\n    tag_53:\n        /* \"contracts/ShopContract.sol\":922:932  msg.sender */\n      caller\n        /* \"contracts/ShopContract.sol\":893:932  payments[paymentId].buyer == msg.sender */\n      0xffffffffffffffffffffffffffffffffffffffff\n      and\n        /* \"contracts/ShopContract.sol\":893:901  payments */\n      0x00\n        /* \"contracts/ShopContract.sol\":893:912  payments[paymentId] */\n      dup1\n        /* \"contracts/ShopContract.sol\":902:911  paymentId */\n      dup4\n        /* \"contracts/ShopContract.sol\":893:912  payments[paymentId] */\n      dup2\n      mstore\n      0x20\n      add\n      swap1\n      dup2\n      mstore\n      0x20\n      add\n      0x00\n      keccak256\n        /* \"contracts/ShopContract.sol\":893:918  payments[paymentId].buyer */\n      0x01\n      add\n      0x00\n      swap1\n      sload\n      swap1\n      0x0100\n      exp\n      swap1\n      div\n      0xffffffffffffffffffffffffffffffffffffffff\n      and\n        /* \"contracts/ShopContract.sol\":893:932  payments[paymentId].buyer == msg.sender */\n      0xffffffffffffffffffffffffffffffffffffffff\n      and\n      eq\n        /* \"contracts/ShopContract.sol\":885:951  require(payments[paymentId].buyer == msg.sender, \"Not authorized\") */\n      tag_56\n      jumpi\n      mload(0x40)\n      0x08c379a000000000000000000000000000000000000000000000000000000000\n      dup2\n      mstore\n      0x04\n      add\n      tag_57\n      swap1\n      tag_46\n      jump\t// in\n    tag_57:\n      mload(0x40)\n      dup1\n      swap2\n      sub\n      swap1\n      revert\n    tag_56:\n        /* \"contracts/ShopContract.sol\":989:998  paymentId */\n      dup1\n        /* \"contracts/ShopContract.sol\":966:978  transactions */\n      0x01\n        /* \"contracts/ShopContract.sol\":966:986  transactions[txHash] */\n      0x00\n        /* \"contracts/ShopContract.sol\":979:985  txHash */\n      dup5\n        /* \"contracts/ShopContract.sol\":966:986  transactions[txHash] */\n      dup2\n      mstore\n      0x20\n      add\n      swap1\n      dup2\n      mstore\n      0x20\n      add\n      0x00\n      keccak256\n        /* \"contracts/ShopContract.sol\":966:998  transactions[txHash] = paymentId */\n      dup2\n      swap1\n      sstore\n      pop\n        /* \"contracts/ShopContract.sol\":724:1045  function storeTransactionHash(bytes32 txHash, uint paymentId) public {... */\n      pop\n      pop\n      jump\t// out\n        /* \"contracts/ShopContract.sol\":276:320  mapping(bytes32 => uint) public transactions */\n    tag_21:\n      mstore(0x20, 0x01)\n      dup1\n      0x00\n      mstore\n      keccak256(0x00, 0x40)\n      0x00\n      swap2\n      pop\n      swap1\n      pop\n      sload\n      dup2\n      jump\t// out\n        /* \"contracts/ShopContract.sol\":221:261  mapping(uint => Payment) public payments */\n    tag_28:\n      mstore(0x20, 0x00)\n      dup1\n      0x00\n      mstore\n      keccak256(0x00, 0x40)\n      0x00\n      swap2\n      pop\n      swap1\n      pop\n      dup1\n      0x00\n      add\n      sload\n      swap1\n      dup1\n      0x01\n      add\n      0x00\n      swap1\n      sload\n      swap1\n      0x0100\n      exp\n      swap1\n      div\n      0xffffffffffffffffffffffffffffffffffffffff\n      and\n      swap1\n      dup1\n      0x02\n      add\n      0x00\n      swap1\n      sload\n      swap1\n      0x0100\n      exp\n      swap1\n      div\n      0xffffffffffffffffffffffffffffffffffffffff\n      and\n      swap1\n      dup1\n      0x02\n      add\n      0x14\n      swap1\n      sload\n      swap1\n      0x0100\n      exp\n      swap1\n      div\n      0xff\n      and\n      swap1\n      pop\n      dup5\n      jump\t// out\n        /* \"contracts/ShopContract.sol\":332:357  uint public nextPaymentId */\n    tag_33:\n      sload(0x02)\n      dup2\n      jump\t// out\n        /* \"contracts/ShopContract.sol\":392:714  function createPayment(address seller) public payable returns (uint) {... */\n    tag_38:\n        /* \"contracts/ShopContract.sol\":455:459  uint */\n      0x00\n        /* \"contracts/ShopContract.sol\":498:644  Payment({... */\n      mload(0x40)\n      dup1\n      0x80\n      add\n      0x40\n      mstore\n      dup1\n        /* \"contracts/ShopContract.sol\":529:538  msg.value */\n      callvalue\n        /* \"contracts/ShopContract.sol\":498:644  Payment({... */\n      dup2\n      mstore\n      0x20\n      add\n        /* \"contracts/ShopContract.sol\":560:570  msg.sender */\n      caller\n        /* \"contracts/ShopContract.sol\":498:644  Payment({... */\n      0xffffffffffffffffffffffffffffffffffffffff\n      and\n      dup2\n      mstore\n      0x20\n      add\n        /* \"contracts/ShopContract.sol\":593:599  seller */\n      dup4\n        /* \"contracts/ShopContract.sol\":498:644  Payment({... */\n      0xffffffffffffffffffffffffffffffffffffffff\n      and\n      dup2\n      mstore\n      0x20\n      add\n        /* \"contracts/ShopContract.sol\":627:632  false */\n      0x00\n        /* \"contracts/ShopContract.sol\":498:644  Payment({... */\n      iszero\n      iszero\n      dup2\n      mstore\n      pop\n        /* \"contracts/ShopContract.sol\":472:480  payments */\n      0x00\n        /* \"contracts/ShopContract.sol\":472:495  payments[nextPaymentId] */\n      dup1\n        /* \"contracts/ShopContract.sol\":481:494  nextPaymentId */\n      sload(0x02)\n        /* \"contracts/ShopContract.sol\":472:495  payments[nextPaymentId] */\n      dup2\n      mstore\n      0x20\n      add\n      swap1\n      dup2\n      mstore\n      0x20\n      add\n      0x00\n      keccak256\n        /* \"contracts/ShopContract.sol\":472:644  payments[nextPaymentId] = Payment({... */\n      0x00\n      dup3\n      add\n      mload\n      dup2\n      0x00\n      add\n      sstore\n      0x20\n      dup3\n      add\n      mload\n      dup2\n      0x01\n      add\n      exp(0x0100, 0x00)\n      dup2\n      sload\n      dup2\n      0xffffffffffffffffffffffffffffffffffffffff\n      mul\n      not\n      and\n      swap1\n      dup4\n      0xffffffffffffffffffffffffffffffffffffffff\n      and\n      mul\n      or\n      swap1\n      sstore\n      pop\n      0x40\n      dup3\n      add\n      mload\n      dup2\n      0x02\n      add\n      exp(0x0100, 0x00)\n      dup2\n      sload\n      dup2\n      0xffffffffffffffffffffffffffffffffffffffff\n      mul\n      not\n      and\n      swap1\n      dup4\n      0xffffffffffffffffffffffffffffffffffffffff\n      and\n      mul\n      or\n      swap1\n      sstore\n      pop\n      0x60\n      dup3\n      add\n      mload\n      dup2\n      0x02\n      add\n      exp(0x0100, 0x14)\n      dup2\n      sload\n      dup2\n      0xff\n      mul\n      not\n      and\n      swap1\n      dup4\n      iszero\n      iszero\n      mul\n      or\n      swap1\n      sstore\n      pop\n      swap1\n      pop\n      pop\n        /* \"contracts/ShopContract.sol\":655:668  nextPaymentId */\n      0x02\n      0x00\n        /* \"contracts/ShopContract.sol\":655:670  nextPaymentId++ */\n      dup2\n      sload\n      dup1\n      swap3\n      swap2\n      swap1\n      tag_59\n      swap1\n      tag_60\n      jump\t// in\n    tag_59:\n      swap2\n      swap1\n      pop\n      sstore\n      pop\n        /* \"contracts/ShopContract.sol\":704:705  1 */\n      0x01\n        /* \"contracts/ShopContract.sol\":688:701  nextPaymentId */\n      sload(0x02)\n        /* \"contracts/ShopContract.sol\":688:705  nextPaymentId - 1 */\n      tag_61\n      swap2\n      swap1\n      tag_62\n      jump\t// in\n    tag_61:\n        /* \"contracts/ShopContract.sol\":681:705  return nextPaymentId - 1 */\n      swap1\n      pop\n        /* \"contracts/ShopContract.sol\":392:714  function createPayment(address seller) public payable returns (uint) {... */\n      swap2\n      swap1\n      pop\n      jump\t// out\n        /* \"#utility.yul\":88:205   */\n    tag_64:\n        /* \"#utility.yul\":197:198   */\n      0x00\n        /* \"#utility.yul\":194:195   */\n      dup1\n        /* \"#utility.yul\":187:199   */\n      revert\n        /* \"#utility.yul\":334:411   */\n    tag_66:\n        /* \"#utility.yul\":371:378   */\n      0x00\n        /* \"#utility.yul\":400:405   */\n      dup2\n        /* \"#utility.yul\":389:405   */\n      swap1\n      pop\n        /* \"#utility.yul\":334:411   */\n      swap2\n      swap1\n      pop\n      jump\t// out\n        /* \"#utility.yul\":417:539   */\n    tag_67:\n        /* \"#utility.yul\":490:514   */\n      tag_96\n        /* \"#utility.yul\":508:513   */\n      dup2\n        /* \"#utility.yul\":490:514   */\n      tag_66\n      jump\t// in\n    tag_96:\n        /* \"#utility.yul\":483:488   */\n      dup2\n        /* \"#utility.yul\":480:515   */\n      eq\n        /* \"#utility.yul\":470:533   */\n      tag_97\n      jumpi\n        /* \"#utility.yul\":529:530   */\n      0x00\n        /* \"#utility.yul\":526:527   */\n      dup1\n        /* \"#utility.yul\":519:531   */\n      revert\n        /* \"#utility.yul\":470:533   */\n    tag_97:\n        /* \"#utility.yul\":417:539   */\n      pop\n      jump\t// out\n        /* \"#utility.yul\":545:684   */\n    tag_68:\n        /* \"#utility.yul\":591:596   */\n      0x00\n        /* \"#utility.yul\":629:635   */\n      dup2\n        /* \"#utility.yul\":616:636   */\n      calldataload\n        /* \"#utility.yul\":607:636   */\n      swap1\n      pop\n        /* \"#utility.yul\":645:678   */\n      tag_99\n        /* \"#utility.yul\":672:677   */\n      dup2\n        /* \"#utility.yul\":645:678   */\n      tag_67\n      jump\t// in\n    tag_99:\n        /* \"#utility.yul\":545:684   */\n      swap3\n      swap2\n      pop\n      pop\n      jump\t// out\n        /* \"#utility.yul\":690:1019   */\n    tag_11:\n        /* \"#utility.yul\":749:755   */\n      0x00\n        /* \"#utility.yul\":798:800   */\n      0x20\n        /* \"#utility.yul\":786:795   */\n      dup3\n        /* \"#utility.yul\":777:784   */\n      dup5\n        /* \"#utility.yul\":773:796   */\n      sub\n        /* \"#utility.yul\":769:801   */\n      slt\n        /* \"#utility.yul\":766:885   */\n      iszero\n      tag_101\n      jumpi\n        /* \"#utility.yul\":804:883   */\n      tag_102\n      tag_64\n      jump\t// in\n    tag_102:\n        /* \"#utility.yul\":766:885   */\n    tag_101:\n        /* \"#utility.yul\":924:925   */\n      0x00\n        /* \"#utility.yul\":949:1002   */\n      tag_103\n        /* \"#utility.yul\":994:1001   */\n      dup5\n        /* \"#utility.yul\":985:991   */\n      dup3\n        /* \"#utility.yul\":974:983   */\n      dup6\n        /* \"#utility.yul\":970:992   */\n      add\n        /* \"#utility.yul\":949:1002   */\n      tag_68\n      jump\t// in\n    tag_103:\n        /* \"#utility.yul\":939:1002   */\n      swap2\n      pop\n        /* \"#utility.yul\":895:1012   */\n      pop\n        /* \"#utility.yul\":690:1019   */\n      swap3\n      swap2\n      pop\n      pop\n      jump\t// out\n        /* \"#utility.yul\":1025:1102   */\n    tag_69:\n        /* \"#utility.yul\":1062:1069   */\n      0x00\n        /* \"#utility.yul\":1091:1096   */\n      dup2\n        /* \"#utility.yul\":1080:1096   */\n      swap1\n      pop\n        /* \"#utility.yul\":1025:1102   */\n      swap2\n      swap1\n      pop\n      jump\t// out\n        /* \"#utility.yul\":1108:1230   */\n    tag_70:\n        /* \"#utility.yul\":1181:1205   */\n      tag_106\n        /* \"#utility.yul\":1199:1204   */\n      dup2\n        /* \"#utility.yul\":1181:1205   */\n      tag_69\n      jump\t// in\n    tag_106:\n        /* \"#utility.yul\":1174:1179   */\n      dup2\n        /* \"#utility.yul\":1171:1206   */\n      eq\n        /* \"#utility.yul\":1161:1224   */\n      tag_107\n      jumpi\n        /* \"#utility.yul\":1220:1221   */\n      0x00\n        /* \"#utility.yul\":1217:1218   */\n      dup1\n        /* \"#utility.yul\":1210:1222   */\n      revert\n        /* \"#utility.yul\":1161:1224   */\n    tag_107:\n        /* \"#utility.yul\":1108:1230   */\n      pop\n      jump\t// out\n        /* \"#utility.yul\":1236:1375   */\n    tag_71:\n        /* \"#utility.yul\":1282:1287   */\n      0x00\n        /* \"#utility.yul\":1320:1326   */\n      dup2\n        /* \"#utility.yul\":1307:1327   */\n      calldataload\n        /* \"#utility.yul\":1298:1327   */\n      swap1\n      pop\n        /* \"#utility.yul\":1336:1369   */\n      tag_109\n        /* \"#utility.yul\":1363:1368   */\n      dup2\n        /* \"#utility.yul\":1336:1369   */\n      tag_70\n      jump\t// in\n    tag_109:\n        /* \"#utility.yul\":1236:1375   */\n      swap3\n      swap2\n      pop\n      pop\n      jump\t// out\n        /* \"#utility.yul\":1381:1855   */\n    tag_16:\n        /* \"#utility.yul\":1449:1455   */\n      0x00\n        /* \"#utility.yul\":1457:1463   */\n      dup1\n        /* \"#utility.yul\":1506:1508   */\n      0x40\n        /* \"#utility.yul\":1494:1503   */\n      dup4\n        /* \"#utility.yul\":1485:1492   */\n      dup6\n        /* \"#utility.yul\":1481:1504   */\n      sub\n        /* \"#utility.yul\":1477:1509   */\n      slt\n        /* \"#utility.yul\":1474:1593   */\n      iszero\n      tag_111\n      jumpi\n        /* \"#utility.yul\":1512:1591   */\n      tag_112\n      tag_64\n      jump\t// in\n    tag_112:\n        /* \"#utility.yul\":1474:1593   */\n    tag_111:\n        /* \"#utility.yul\":1632:1633   */\n      0x00\n        /* \"#utility.yul\":1657:1710   */\n      tag_113\n        /* \"#utility.yul\":1702:1709   */\n      dup6\n        /* \"#utility.yul\":1693:1699   */\n      dup3\n        /* \"#utility.yul\":1682:1691   */\n      dup7\n        /* \"#utility.yul\":1678:1700   */\n      add\n        /* \"#utility.yul\":1657:1710   */\n      tag_68\n      jump\t// in\n    tag_113:\n        /* \"#utility.yul\":1647:1710   */\n      swap3\n      pop\n        /* \"#utility.yul\":1603:1720   */\n      pop\n        /* \"#utility.yul\":1759:1761   */\n      0x20\n        /* \"#utility.yul\":1785:1838   */\n      tag_114\n        /* \"#utility.yul\":1830:1837   */\n      dup6\n        /* \"#utility.yul\":1821:1827   */\n      dup3\n        /* \"#utility.yul\":1810:1819   */\n      dup7\n        /* \"#utility.yul\":1806:1828   */\n      add\n        /* \"#utility.yul\":1785:1838   */\n      tag_71\n      jump\t// in\n    tag_114:\n        /* \"#utility.yul\":1775:1838   */\n      swap2\n      pop\n        /* \"#utility.yul\":1730:1848   */\n      pop\n        /* \"#utility.yul\":1381:1855   */\n      swap3\n      pop\n      swap3\n      swap1\n      pop\n      jump\t// out\n        /* \"#utility.yul\":1861:1979   */\n    tag_72:\n        /* \"#utility.yul\":1948:1972   */\n      tag_116\n        /* \"#utility.yul\":1966:1971   */\n      dup2\n        /* \"#utility.yul\":1948:1972   */\n      tag_69\n      jump\t// in\n    tag_116:\n        /* \"#utility.yul\":1943:1946   */\n      dup3\n        /* \"#utility.yul\":1936:1973   */\n      mstore\n        /* \"#utility.yul\":1861:1979   */\n      pop\n      pop\n      jump\t// out\n        /* \"#utility.yul\":1985:2207   */\n    tag_23:\n        /* \"#utility.yul\":2078:2082   */\n      0x00\n        /* \"#utility.yul\":2116:2118   */\n      0x20\n        /* \"#utility.yul\":2105:2114   */\n      dup3\n        /* \"#utility.yul\":2101:2119   */\n      add\n        /* \"#utility.yul\":2093:2119   */\n      swap1\n      pop\n        /* \"#utility.yul\":2129:2200   */\n      tag_118\n        /* \"#utility.yul\":2197:2198   */\n      0x00\n        /* \"#utility.yul\":2186:2195   */\n      dup4\n        /* \"#utility.yul\":2182:2199   */\n      add\n        /* \"#utility.yul\":2173:2179   */\n      dup5\n        /* \"#utility.yul\":2129:2200   */\n      tag_72\n      jump\t// in\n    tag_118:\n        /* \"#utility.yul\":1985:2207   */\n      swap3\n      swap2\n      pop\n      pop\n      jump\t// out\n        /* \"#utility.yul\":2213:2542   */\n    tag_27:\n        /* \"#utility.yul\":2272:2278   */\n      0x00\n        /* \"#utility.yul\":2321:2323   */\n      0x20\n        /* \"#utility.yul\":2309:2318   */\n      dup3\n        /* \"#utility.yul\":2300:2307   */\n      dup5\n        /* \"#utility.yul\":2296:2319   */\n      sub\n        /* \"#utility.yul\":2292:2324   */\n      slt\n        /* \"#utility.yul\":2289:2408   */\n      iszero\n      tag_120\n      jumpi\n        /* \"#utility.yul\":2327:2406   */\n      tag_121\n      tag_64\n      jump\t// in\n    tag_121:\n        /* \"#utility.yul\":2289:2408   */\n    tag_120:\n        /* \"#utility.yul\":2447:2448   */\n      0x00\n        /* \"#utility.yul\":2472:2525   */\n      tag_122\n        /* \"#utility.yul\":2517:2524   */\n      dup5\n        /* \"#utility.yul\":2508:2514   */\n      dup3\n        /* \"#utility.yul\":2497:2506   */\n      dup6\n        /* \"#utility.yul\":2493:2515   */\n      add\n        /* \"#utility.yul\":2472:2525   */\n      tag_71\n      jump\t// in\n    tag_122:\n        /* \"#utility.yul\":2462:2525   */\n      swap2\n      pop\n        /* \"#utility.yul\":2418:2535   */\n      pop\n        /* \"#utility.yul\":2213:2542   */\n      swap3\n      swap2\n      pop\n      pop\n      jump\t// out\n        /* \"#utility.yul\":2548:2674   */\n    tag_73:\n        /* \"#utility.yul\":2585:2592   */\n      0x00\n        /* \"#utility.yul\":2625:2667   */\n      0xffffffffffffffffffffffffffffffffffffffff\n        /* \"#utility.yul\":2618:2623   */\n      dup3\n        /* \"#utility.yul\":2614:2668   */\n      and\n        /* \"#utility.yul\":2603:2668   */\n      swap1\n      pop\n        /* \"#utility.yul\":2548:2674   */\n      swap2\n      swap1\n      pop\n      jump\t// out\n        /* \"#utility.yul\":2680:2776   */\n    tag_74:\n        /* \"#utility.yul\":2717:2724   */\n      0x00\n        /* \"#utility.yul\":2746:2770   */\n      tag_125\n        /* \"#utility.yul\":2764:2769   */\n      dup3\n        /* \"#utility.yul\":2746:2770   */\n      tag_73\n      jump\t// in\n    tag_125:\n        /* \"#utility.yul\":2735:2770   */\n      swap1\n      pop\n        /* \"#utility.yul\":2680:2776   */\n      swap2\n      swap1\n      pop\n      jump\t// out\n        /* \"#utility.yul\":2782:2900   */\n    tag_75:\n        /* \"#utility.yul\":2869:2893   */\n      tag_127\n        /* \"#utility.yul\":2887:2892   */\n      dup2\n        /* \"#utility.yul\":2869:2893   */\n      tag_74\n      jump\t// in\n    tag_127:\n        /* \"#utility.yul\":2864:2867   */\n      dup3\n        /* \"#utility.yul\":2857:2894   */\n      mstore\n        /* \"#utility.yul\":2782:2900   */\n      pop\n      pop\n      jump\t// out\n        /* \"#utility.yul\":2906:2996   */\n    tag_76:\n        /* \"#utility.yul\":2940:2947   */\n      0x00\n        /* \"#utility.yul\":2983:2988   */\n      dup2\n        /* \"#utility.yul\":2976:2989   */\n      iszero\n        /* \"#utility.yul\":2969:2990   */\n      iszero\n        /* \"#utility.yul\":2958:2990   */\n      swap1\n      pop\n        /* \"#utility.yul\":2906:2996   */\n      swap2\n      swap1\n      pop\n      jump\t// out\n        /* \"#utility.yul\":3002:3111   */\n    tag_77:\n        /* \"#utility.yul\":3083:3104   */\n      tag_130\n        /* \"#utility.yul\":3098:3103   */\n      dup2\n        /* \"#utility.yul\":3083:3104   */\n      tag_76\n      jump\t// in\n    tag_130:\n        /* \"#utility.yul\":3078:3081   */\n      dup3\n        /* \"#utility.yul\":3071:3105   */\n      mstore\n        /* \"#utility.yul\":3002:3111   */\n      pop\n      pop\n      jump\t// out\n        /* \"#utility.yul\":3117:3658   */\n    tag_30:\n        /* \"#utility.yul\":3288:3292   */\n      0x00\n        /* \"#utility.yul\":3326:3329   */\n      0x80\n        /* \"#utility.yul\":3315:3324   */\n      dup3\n        /* \"#utility.yul\":3311:3330   */\n      add\n        /* \"#utility.yul\":3303:3330   */\n      swap1\n      pop\n        /* \"#utility.yul\":3340:3411   */\n      tag_132\n        /* \"#utility.yul\":3408:3409   */\n      0x00\n        /* \"#utility.yul\":3397:3406   */\n      dup4\n        /* \"#utility.yul\":3393:3410   */\n      add\n        /* \"#utility.yul\":3384:3390   */\n      dup8\n        /* \"#utility.yul\":3340:3411   */\n      tag_72\n      jump\t// in\n    tag_132:\n        /* \"#utility.yul\":3421:3493   */\n      tag_133\n        /* \"#utility.yul\":3489:3491   */\n      0x20\n        /* \"#utility.yul\":3478:3487   */\n      dup4\n        /* \"#utility.yul\":3474:3492   */\n      add\n        /* \"#utility.yul\":3465:3471   */\n      dup7\n        /* \"#utility.yul\":3421:3493   */\n      tag_75\n      jump\t// in\n    tag_133:\n        /* \"#utility.yul\":3503:3575   */\n      tag_134\n        /* \"#utility.yul\":3571:3573   */\n      0x40\n        /* \"#utility.yul\":3560:3569   */\n      dup4\n        /* \"#utility.yul\":3556:3574   */\n      add\n        /* \"#utility.yul\":3547:3553   */\n      dup6\n        /* \"#utility.yul\":3503:3575   */\n      tag_75\n      jump\t// in\n    tag_134:\n        /* \"#utility.yul\":3585:3651   */\n      tag_135\n        /* \"#utility.yul\":3647:3649   */\n      0x60\n        /* \"#utility.yul\":3636:3645   */\n      dup4\n        /* \"#utility.yul\":3632:3650   */\n      add\n        /* \"#utility.yul\":3623:3629   */\n      dup5\n        /* \"#utility.yul\":3585:3651   */\n      tag_77\n      jump\t// in\n    tag_135:\n        /* \"#utility.yul\":3117:3658   */\n      swap6\n      swap5\n      pop\n      pop\n      pop\n      pop\n      pop\n      jump\t// out\n        /* \"#utility.yul\":3664:3786   */\n    tag_78:\n        /* \"#utility.yul\":3737:3761   */\n      tag_137\n        /* \"#utility.yul\":3755:3760   */\n      dup2\n        /* \"#utility.yul\":3737:3761   */\n      tag_74\n      jump\t// in\n    tag_137:\n        /* \"#utility.yul\":3730:3735   */\n      dup2\n        /* \"#utility.yul\":3727:3762   */\n      eq\n        /* \"#utility.yul\":3717:3780   */\n      tag_138\n      jumpi\n        /* \"#utility.yul\":3776:3777   */\n      0x00\n        /* \"#utility.yul\":3773:3774   */\n      dup1\n        /* \"#utility.yul\":3766:3778   */\n      revert\n        /* \"#utility.yul\":3717:3780   */\n    tag_138:\n        /* \"#utility.yul\":3664:3786   */\n      pop\n      jump\t// out\n        /* \"#utility.yul\":3792:3931   */\n    tag_79:\n        /* \"#utility.yul\":3838:3843   */\n      0x00\n        /* \"#utility.yul\":3876:3882   */\n      dup2\n        /* \"#utility.yul\":3863:3883   */\n      calldataload\n        /* \"#utility.yul\":3854:3883   */\n      swap1\n      pop\n        /* \"#utility.yul\":3892:3925   */\n      tag_140\n        /* \"#utility.yul\":3919:3924   */\n      dup2\n        /* \"#utility.yul\":3892:3925   */\n      tag_78\n      jump\t// in\n    tag_140:\n        /* \"#utility.yul\":3792:3931   */\n      swap3\n      swap2\n      pop\n      pop\n      jump\t// out\n        /* \"#utility.yul\":3937:4266   */\n    tag_37:\n        /* \"#utility.yul\":3996:4002   */\n      0x00\n        /* \"#utility.yul\":4045:4047   */\n      0x20\n        /* \"#utility.yul\":4033:4042   */\n      dup3\n        /* \"#utility.yul\":4024:4031   */\n      dup5\n        /* \"#utility.yul\":4020:4043   */\n      sub\n        /* \"#utility.yul\":4016:4048   */\n      slt\n        /* \"#utility.yul\":4013:4132   */\n      iszero\n      tag_142\n      jumpi\n        /* \"#utility.yul\":4051:4130   */\n      tag_143\n      tag_64\n      jump\t// in\n    tag_143:\n        /* \"#utility.yul\":4013:4132   */\n    tag_142:\n        /* \"#utility.yul\":4171:4172   */\n      0x00\n        /* \"#utility.yul\":4196:4249   */\n      tag_144\n        /* \"#utility.yul\":4241:4248   */\n      dup5\n        /* \"#utility.yul\":4232:4238   */\n      dup3\n        /* \"#utility.yul\":4221:4230   */\n      dup6\n        /* \"#utility.yul\":4217:4239   */\n      add\n        /* \"#utility.yul\":4196:4249   */\n      tag_79\n      jump\t// in\n    tag_144:\n        /* \"#utility.yul\":4186:4249   */\n      swap2\n      pop\n        /* \"#utility.yul\":4142:4259   */\n      pop\n        /* \"#utility.yul\":3937:4266   */\n      swap3\n      swap2\n      pop\n      pop\n      jump\t// out\n        /* \"#utility.yul\":4272:4441   */\n    tag_80:\n        /* \"#utility.yul\":4356:4367   */\n      0x00\n        /* \"#utility.yul\":4390:4396   */\n      dup3\n        /* \"#utility.yul\":4385:4388   */\n      dup3\n        /* \"#utility.yul\":4378:4397   */\n      mstore\n        /* \"#utility.yul\":4430:4434   */\n      0x20\n        /* \"#utility.yul\":4425:4428   */\n      dup3\n        /* \"#utility.yul\":4421:4435   */\n      add\n        /* \"#utility.yul\":4406:4435   */\n      swap1\n      pop\n        /* \"#utility.yul\":4272:4441   */\n      swap3\n      swap2\n      pop\n      pop\n      jump\t// out\n        /* \"#utility.yul\":4447:4619   */\n    tag_81:\n        /* \"#utility.yul\":4587:4611   */\n      0x5061796d656e7420646f6573206e6f7420657869737400000000000000000000\n        /* \"#utility.yul\":4583:4584   */\n      0x00\n        /* \"#utility.yul\":4575:4581   */\n      dup3\n        /* \"#utility.yul\":4571:4585   */\n      add\n        /* \"#utility.yul\":4564:4612   */\n      mstore\n        /* \"#utility.yul\":4447:4619   */\n      pop\n      jump\t// out\n        /* \"#utility.yul\":4625:4991   */\n    tag_82:\n        /* \"#utility.yul\":4767:4770   */\n      0x00\n        /* \"#utility.yul\":4788:4855   */\n      tag_148\n        /* \"#utility.yul\":4852:4854   */\n      0x16\n        /* \"#utility.yul\":4847:4850   */\n      dup4\n        /* \"#utility.yul\":4788:4855   */\n      tag_80\n      jump\t// in\n    tag_148:\n        /* \"#utility.yul\":4781:4855   */\n      swap2\n      pop\n        /* \"#utility.yul\":4864:4957   */\n      tag_149\n        /* \"#utility.yul\":4953:4956   */\n      dup3\n        /* \"#utility.yul\":4864:4957   */\n      tag_81\n      jump\t// in\n    tag_149:\n        /* \"#utility.yul\":4982:4984   */\n      0x20\n        /* \"#utility.yul\":4977:4980   */\n      dup3\n        /* \"#utility.yul\":4973:4985   */\n      add\n        /* \"#utility.yul\":4966:4985   */\n      swap1\n      pop\n        /* \"#utility.yul\":4625:4991   */\n      swap2\n      swap1\n      pop\n      jump\t// out\n        /* \"#utility.yul\":4997:5416   */\n    tag_43:\n        /* \"#utility.yul\":5163:5167   */\n      0x00\n        /* \"#utility.yul\":5201:5203   */\n      0x20\n        /* \"#utility.yul\":5190:5199   */\n      dup3\n        /* \"#utility.yul\":5186:5204   */\n      add\n        /* \"#utility.yul\":5178:5204   */\n      swap1\n      pop\n        /* \"#utility.yul\":5250:5259   */\n      dup2\n        /* \"#utility.yul\":5244:5248   */\n      dup2\n        /* \"#utility.yul\":5240:5260   */\n      sub\n        /* \"#utility.yul\":5236:5237   */\n      0x00\n        /* \"#utility.yul\":5225:5234   */\n      dup4\n        /* \"#utility.yul\":5221:5238   */\n      add\n        /* \"#utility.yul\":5214:5261   */\n      mstore\n        /* \"#utility.yul\":5278:5409   */\n      tag_151\n        /* \"#utility.yul\":5404:5408   */\n      dup2\n        /* \"#utility.yul\":5278:5409   */\n      tag_82\n      jump\t// in\n    tag_151:\n        /* \"#utility.yul\":5270:5409   */\n      swap1\n      pop\n        /* \"#utility.yul\":4997:5416   */\n      swap2\n      swap1\n      pop\n      jump\t// out\n        /* \"#utility.yul\":5422:5586   */\n    tag_83:\n        /* \"#utility.yul\":5562:5578   */\n      0x4e6f7420617574686f72697a6564000000000000000000000000000000000000\n        /* \"#utility.yul\":5558:5559   */\n      0x00\n        /* \"#utility.yul\":5550:5556   */\n      dup3\n        /* \"#utility.yul\":5546:5560   */\n      add\n        /* \"#utility.yul\":5539:5579   */\n      mstore\n        /* \"#utility.yul\":5422:5586   */\n      pop\n      jump\t// out\n        /* \"#utility.yul\":5592:5958   */\n    tag_84:\n        /* \"#utility.yul\":5734:5737   */\n      0x00\n        /* \"#utility.yul\":5755:5822   */\n      tag_154\n        /* \"#utility.yul\":5819:5821   */\n      0x0e\n        /* \"#utility.yul\":5814:5817   */\n      dup4\n        /* \"#utility.yul\":5755:5822   */\n      tag_80\n      jump\t// in\n    tag_154:\n        /* \"#utility.yul\":5748:5822   */\n      swap2\n      pop\n        /* \"#utility.yul\":5831:5924   */\n      tag_155\n        /* \"#utility.yul\":5920:5923   */\n      dup3\n        /* \"#utility.yul\":5831:5924   */\n      tag_83\n      jump\t// in\n    tag_155:\n        /* \"#utility.yul\":5949:5951   */\n      0x20\n        /* \"#utility.yul\":5944:5947   */\n      dup3\n        /* \"#utility.yul\":5940:5952   */\n      add\n        /* \"#utility.yul\":5933:5952   */\n      swap1\n      pop\n        /* \"#utility.yul\":5592:5958   */\n      swap2\n      swap1\n      pop\n      jump\t// out\n        /* \"#utility.yul\":5964:6383   */\n    tag_46:\n        /* \"#utility.yul\":6130:6134   */\n      0x00\n        /* \"#utility.yul\":6168:6170   */\n      0x20\n        /* \"#utility.yul\":6157:6166   */\n      dup3\n        /* \"#utility.yul\":6153:6171   */\n      add\n        /* \"#utility.yul\":6145:6171   */\n      swap1\n      pop\n        /* \"#utility.yul\":6217:6226   */\n      dup2\n        /* \"#utility.yul\":6211:6215   */\n      dup2\n        /* \"#utility.yul\":6207:6227   */\n      sub\n        /* \"#utility.yul\":6203:6204   */\n      0x00\n        /* \"#utility.yul\":6192:6201   */\n      dup4\n        /* \"#utility.yul\":6188:6205   */\n      add\n        /* \"#utility.yul\":6181:6228   */\n      mstore\n        /* \"#utility.yul\":6245:6376   */\n      tag_157\n        /* \"#utility.yul\":6371:6375   */\n      dup2\n        /* \"#utility.yul\":6245:6376   */\n      tag_84\n      jump\t// in\n    tag_157:\n        /* \"#utility.yul\":6237:6376   */\n      swap1\n      pop\n        /* \"#utility.yul\":5964:6383   */\n      swap2\n      swap1\n      pop\n      jump\t// out\n        /* \"#utility.yul\":6389:6564   */\n    tag_85:\n        /* \"#utility.yul\":6529:6556   */\n      0x5061796d656e7420616c726561647920636f6d706c6574656400000000000000\n        /* \"#utility.yul\":6525:6526   */\n      0x00\n        /* \"#utility.yul\":6517:6523   */\n      dup3\n        /* \"#utility.yul\":6513:6527   */\n      add\n        /* \"#utility.yul\":6506:6557   */\n      mstore\n        /* \"#utility.yul\":6389:6564   */\n      pop\n      jump\t// out\n        /* \"#utility.yul\":6570:6936   */\n    tag_86:\n        /* \"#utility.yul\":6712:6715   */\n      0x00\n        /* \"#utility.yul\":6733:6800   */\n      tag_160\n        /* \"#utility.yul\":6797:6799   */\n      0x19\n        /* \"#utility.yul\":6792:6795   */\n      dup4\n        /* \"#utility.yul\":6733:6800   */\n      tag_80\n      jump\t// in\n    tag_160:\n        /* \"#utility.yul\":6726:6800   */\n      swap2\n      pop\n        /* \"#utility.yul\":6809:6902   */\n      tag_161\n        /* \"#utility.yul\":6898:6901   */\n      dup3\n        /* \"#utility.yul\":6809:6902   */\n      tag_85\n      jump\t// in\n    tag_161:\n        /* \"#utility.yul\":6927:6929   */\n      0x20\n        /* \"#utility.yul\":6922:6925   */\n      dup3\n        /* \"#utility.yul\":6918:6930   */\n      add\n        /* \"#utility.yul\":6911:6930   */\n      swap1\n      pop\n        /* \"#utility.yul\":6570:6936   */\n      swap2\n      swap1\n      pop\n      jump\t// out\n        /* \"#utility.yul\":6942:7361   */\n    tag_49:\n        /* \"#utility.yul\":7108:7112   */\n      0x00\n        /* \"#utility.yul\":7146:7148   */\n      0x20\n        /* \"#utility.yul\":7135:7144   */\n      dup3\n        /* \"#utility.yul\":7131:7149   */\n      add\n        /* \"#utility.yul\":7123:7149   */\n      swap1\n      pop\n        /* \"#utility.yul\":7195:7204   */\n      dup2\n        /* \"#utility.yul\":7189:7193   */\n      dup2\n        /* \"#utility.yul\":7185:7205   */\n      sub\n        /* \"#utility.yul\":7181:7182   */\n      0x00\n        /* \"#utility.yul\":7170:7179   */\n      dup4\n        /* \"#utility.yul\":7166:7183   */\n      add\n        /* \"#utility.yul\":7159:7206   */\n      mstore\n        /* \"#utility.yul\":7223:7354   */\n      tag_163\n        /* \"#utility.yul\":7349:7353   */\n      dup2\n        /* \"#utility.yul\":7223:7354   */\n      tag_86\n      jump\t// in\n    tag_163:\n        /* \"#utility.yul\":7215:7354   */\n      swap1\n      pop\n        /* \"#utility.yul\":6942:7361   */\n      swap2\n      swap1\n      pop\n      jump\t// out\n        /* \"#utility.yul\":7367:7548   */\n    tag_87:\n        /* \"#utility.yul\":7507:7540   */\n      0x5472616e73616374696f6e206861736820616c72656164792065786973747300\n        /* \"#utility.yul\":7503:7504   */\n      0x00\n        /* \"#utility.yul\":7495:7501   */\n      dup3\n        /* \"#utility.yul\":7491:7505   */\n      add\n        /* \"#utility.yul\":7484:7541   */\n      mstore\n        /* \"#utility.yul\":7367:7548   */\n      pop\n      jump\t// out\n        /* \"#utility.yul\":7554:7920   */\n    tag_88:\n        /* \"#utility.yul\":7696:7699   */\n      0x00\n        /* \"#utility.yul\":7717:7784   */\n      tag_166\n        /* \"#utility.yul\":7781:7783   */\n      0x1f\n        /* \"#utility.yul\":7776:7779   */\n      dup4\n        /* \"#utility.yul\":7717:7784   */\n      tag_80\n      jump\t// in\n    tag_166:\n        /* \"#utility.yul\":7710:7784   */\n      swap2\n      pop\n        /* \"#utility.yul\":7793:7886   */\n      tag_167\n        /* \"#utility.yul\":7882:7885   */\n      dup3\n        /* \"#utility.yul\":7793:7886   */\n      tag_87\n      jump\t// in\n    tag_167:\n        /* \"#utility.yul\":7911:7913   */\n      0x20\n        /* \"#utility.yul\":7906:7909   */\n      dup3\n        /* \"#utility.yul\":7902:7914   */\n      add\n        /* \"#utility.yul\":7895:7914   */\n      swap1\n      pop\n        /* \"#utility.yul\":7554:7920   */\n      swap2\n      swap1\n      pop\n      jump\t// out\n        /* \"#utility.yul\":7926:8345   */\n    tag_55:\n        /* \"#utility.yul\":8092:8096   */\n      0x00\n        /* \"#utility.yul\":8130:8132   */\n      0x20\n        /* \"#utility.yul\":8119:8128   */\n      dup3\n        /* \"#utility.yul\":8115:8133   */\n      add\n        /* \"#utility.yul\":8107:8133   */\n      swap1\n      pop\n        /* \"#utility.yul\":8179:8188   */\n      dup2\n        /* \"#utility.yul\":8173:8177   */\n      dup2\n        /* \"#utility.yul\":8169:8189   */\n      sub\n        /* \"#utility.yul\":8165:8166   */\n      0x00\n        /* \"#utility.yul\":8154:8163   */\n      dup4\n        /* \"#utility.yul\":8150:8167   */\n      add\n        /* \"#utility.yul\":8143:8190   */\n      mstore\n        /* \"#utility.yul\":8207:8338   */\n      tag_169\n        /* \"#utility.yul\":8333:8337   */\n      dup2\n        /* \"#utility.yul\":8207:8338   */\n      tag_88\n      jump\t// in\n    tag_169:\n        /* \"#utility.yul\":8199:8338   */\n      swap1\n      pop\n        /* \"#utility.yul\":7926:8345   */\n      swap2\n      swap1\n      pop\n      jump\t// out\n        /* \"#utility.yul\":8351:8531   */\n    tag_89:\n        /* \"#utility.yul\":8399:8476   */\n      0x4e487b7100000000000000000000000000000000000000000000000000000000\n        /* \"#utility.yul\":8396:8397   */\n      0x00\n        /* \"#utility.yul\":8389:8477   */\n      mstore\n        /* \"#utility.yul\":8496:8500   */\n      0x11\n        /* \"#utility.yul\":8493:8494   */\n      0x04\n        /* \"#utility.yul\":8486:8501   */\n      mstore\n        /* \"#utility.yul\":8520:8524   */\n      0x24\n        /* \"#utility.yul\":8517:8518   */\n      0x00\n        /* \"#utility.yul\":8510:8525   */\n      revert\n        /* \"#utility.yul\":8537:8770   */\n    tag_60:\n        /* \"#utility.yul\":8576:8579   */\n      0x00\n        /* \"#utility.yul\":8599:8623   */\n      tag_172\n        /* \"#utility.yul\":8617:8622   */\n      dup3\n        /* \"#utility.yul\":8599:8623   */\n      tag_69\n      jump\t// in\n    tag_172:\n        /* \"#utility.yul\":8590:8623   */\n      swap2\n      pop\n        /* \"#utility.yul\":8645:8711   */\n      0xffffffffffffffffffffffffffffffffffffffffffffffffffffffffffffffff\n        /* \"#utility.yul\":8638:8643   */\n      dup3\n        /* \"#utility.yul\":8635:8712   */\n      sub\n        /* \"#utility.yul\":8632:8735   */\n      tag_173\n      jumpi\n        /* \"#utility.yul\":8715:8733   */\n      tag_174\n      tag_89\n      jump\t// in\n    tag_174:\n        /* \"#utility.yul\":8632:8735   */\n    tag_173:\n        /* \"#utility.yul\":8762:8763   */\n      0x01\n        /* \"#utility.yul\":8755:8760   */\n      dup3\n        /* \"#utility.yul\":8751:8764   */\n      add\n        /* \"#utility.yul\":8744:8764   */\n      swap1\n      pop\n        /* \"#utility.yul\":8537:8770   */\n      swap2\n      swap1\n      pop\n      jump\t// out\n        /* \"#utility.yul\":8776:8970   */\n    tag_62:\n        /* \"#utility.yul\":8816:8820   */\n      0x00\n        /* \"#utility.yul\":8836:8856   */\n      tag_176\n        /* \"#utility.yul\":8854:8855   */\n      dup3\n        /* \"#utility.yul\":8836:8856   */\n      tag_69\n      jump\t// in\n    tag_176:\n        /* \"#utility.yul\":8831:8856   */\n      swap2\n      pop\n        /* \"#utility.yul\":8870:8890   */\n      tag_177\n        /* \"#utility.yul\":8888:8889   */\n      dup4\n        /* \"#utility.yul\":8870:8890   */\n      tag_69\n      jump\t// in\n    tag_177:\n        /* \"#utility.yul\":8865:8890   */\n      swap3\n      pop\n        /* \"#utility.yul\":8914:8915   */\n      dup3\n        /* \"#utility.yul\":8911:8912   */\n      dup3\n        /* \"#utility.yul\":8907:8916   */\n      sub\n        /* \"#utility.yul\":8899:8916   */\n      swap1\n      pop\n        /* \"#utility.yul\":8938:8939   */\n      dup2\n        /* \"#utility.yul\":8932:8936   */\n      dup2\n        /* \"#utility.yul\":8929:8940   */\n      gt\n        /* \"#utility.yul\":8926:8963   */\n      iszero\n      tag_178\n      jumpi\n        /* \"#utility.yul\":8943:8961   */\n      tag_179\n      tag_89\n      jump\t// in\n    tag_179:\n        /* \"#utility.yul\":8926:8963   */\n    tag_178:\n        /* \"#utility.yul\":8776:8970   */\n      swap3\n      swap2\n      pop\n      pop\n      jump\t// out\n\n    auxdata: 0xa26469706673582212209fbf4a6e7cab3091b6db269c6194913ee485870e2a5dd427a9e34e575c33d52264736f6c634300081a0033\n}\n",
				"bytecode": {
					"linkReferences": {},
					"object": "6080604052348015600e575f80fd5b50610b2d8061001c5f395ff3fe608060405260043610610054575f3560e01c80633611d08814610058578063455cb50d14610080578063642f2eaf146100a857806387d81789146100e45780639b22b92014610123578063e93512e21461014d575b5f80fd5b348015610063575f80fd5b5061007e600480360381019061007991906106c0565b61017d565b005b34801561008b575f80fd5b506100a660048036038101906100a1919061071e565b6103a5565b005b3480156100b3575f80fd5b506100ce60048036038101906100c991906106c0565b6104b2565b6040516100db919061076b565b60405180910390f35b3480156100ef575f80fd5b5061010a60048036038101906101059190610784565b6104c7565b60405161011a9493929190610808565b60405180910390f35b34801561012e575f80fd5b5061013761053d565b604051610144919061076b565b60405180910390f35b61016760048036038101906101629190610875565b610543565b604051610174919061076b565b60405180910390f35b5f60015f8381526020019081526020015f205490505f805f8381526020019081526020015f2090505f73ffffffffffffffffffffffffffffffffffffffff16816002015f9054906101000a900473ffffffffffffffffffffffffffffffffffffffff1673ffffffffffffffffffffffffffffffffffffffff1603610236576040517f08c379a000000000000000000000000000000000000000000000000000000000815260040161022d906108fa565b60405180910390fd5b3373ffffffffffffffffffffffffffffffffffffffff16816001015f9054906101000a900473ffffffffffffffffffffffffffffffffffffffff1673ffffffffffffffffffffffffffffffffffffffff16146102c7576040517f08c379a00000000000000000000000000000000000000000000000000000000081526004016102be90610962565b60405180910390fd5b8060020160149054906101000a900460ff1615610319576040517f08c379a0000000000000000000000000000000000000000000000000000000008152600401610310906109ca565b60405180910390fd5b60018160020160146101000a81548160ff021916908315150217905550806002015f9054906101000a900473ffffffffffffffffffffffffffffffffffffffff1673ffffffffffffffffffffffffffffffffffffffff166108fc825f015490811502906040515f60405180830381858888f1935050505015801561039f573d5f803e3d5ffd5b50505050565b5f60015f8481526020019081526020015f2054146103f8576040517f08c379a00000000000000000000000000000000000000000000000000000000081526004016103ef90610a32565b60405180910390fd5b3373ffffffffffffffffffffffffffffffffffffffff165f808381526020019081526020015f206001015f9054906101000a900473ffffffffffffffffffffffffffffffffffffffff1673ffffffffffffffffffffffffffffffffffffffff1614610498576040517f08c379a000000000000000000000000000000000000000000000000000000000815260040161048f90610962565b60405180910390fd5b8060015f8481526020019081526020015f20819055505050565b6001602052805f5260405f205f915090505481565b5f602052805f5260405f205f91509050805f015490806001015f9054906101000a900473ffffffffffffffffffffffffffffffffffffffff1690806002015f9054906101000a900473ffffffffffffffffffffffffffffffffffffffff16908060020160149054906101000a900460ff16905084565b60025481565b5f60405180608001604052803481526020013373ffffffffffffffffffffffffffffffffffffffff1681526020018373ffffffffffffffffffffffffffffffffffffffff1681526020015f15158152505f8060025481526020019081526020015f205f820151815f01556020820151816001015f6101000a81548173ffffffffffffffffffffffffffffffffffffffff021916908373ffffffffffffffffffffffffffffffffffffffff1602179055506040820151816002015f6101000a81548173ffffffffffffffffffffffffffffffffffffffff021916908373ffffffffffffffffffffffffffffffffffffffff16021790555060608201518160020160146101000a81548160ff02191690831515021790555090505060025f81548092919061066e90610a7d565b919050555060016002546106829190610ac4565b9050919050565b5f80fd5b5f819050919050565b61069f8161068d565b81146106a9575f80fd5b50565b5f813590506106ba81610696565b92915050565b5f602082840312156106d5576106d4610689565b5b5f6106e2848285016106ac565b91505092915050565b5f819050919050565b6106fd816106eb565b8114610707575f80fd5b50565b5f81359050610718816106f4565b92915050565b5f806040838503121561073457610733610689565b5b5f610741858286016106ac565b92505060206107528582860161070a565b9150509250929050565b610765816106eb565b82525050565b5f60208201905061077e5f83018461075c565b92915050565b5f6020828403121561079957610798610689565b5b5f6107a68482850161070a565b91505092915050565b5f73ffffffffffffffffffffffffffffffffffffffff82169050919050565b5f6107d8826107af565b9050919050565b6107e8816107ce565b82525050565b5f8115159050919050565b610802816107ee565b82525050565b5f60808201905061081b5f83018761075c565b61082860208301866107df565b61083560408301856107df565b61084260608301846107f9565b95945050505050565b610854816107ce565b811461085e575f80fd5b50565b5f8135905061086f8161084b565b92915050565b5f6020828403121561088a57610889610689565b5b5f61089784828501610861565b91505092915050565b5f82825260208201905092915050565b7f5061796d656e7420646f6573206e6f74206578697374000000000000000000005f82015250565b5f6108e46016836108a0565b91506108ef826108b0565b602082019050919050565b5f6020820190508181035f830152610911816108d8565b9050919050565b7f4e6f7420617574686f72697a65640000000000000000000000000000000000005f82015250565b5f61094c600e836108a0565b915061095782610918565b602082019050919050565b5f6020820190508181035f83015261097981610940565b9050919050565b7f5061796d656e7420616c726561647920636f6d706c65746564000000000000005f82015250565b5f6109b46019836108a0565b91506109bf82610980565b602082019050919050565b5f6020820190508181035f8301526109e1816109a8565b9050919050565b7f5472616e73616374696f6e206861736820616c726561647920657869737473005f82015250565b5f610a1c601f836108a0565b9150610a27826109e8565b602082019050919050565b5f6020820190508181035f830152610a4981610a10565b9050919050565b7f4e487b71000000000000000000000000000000000000000000000000000000005f52601160045260245ffd5b5f610a87826106eb565b91507fffffffffffffffffffffffffffffffffffffffffffffffffffffffffffffffff8203610ab957610ab8610a50565b5b600182019050919050565b5f610ace826106eb565b9150610ad9836106eb565b9250828203905081811115610af157610af0610a50565b5b9291505056fea26469706673582212209fbf4a6e7cab3091b6db269c6194913ee485870e2a5dd427a9e34e575c33d52264736f6c634300081a0033",
					"opcodes": "PUSH1 0x80 PUSH1 0x40 MSTORE CALLVALUE DUP1 ISZERO PUSH1 0xE JUMPI PUSH0 DUP1 REVERT JUMPDEST POP PUSH2 0xB2D DUP1 PUSH2 0x1C PUSH0 CODECOPY PUSH0 RETURN INVALID PUSH1 0x80 PUSH1 0x40 MSTORE PUSH1 0x4 CALLDATASIZE LT PUSH2 0x54 JUMPI PUSH0 CALLDATALOAD PUSH1 0xE0 SHR DUP1 PUSH4 0x3611D088 EQ PUSH2 0x58 JUMPI DUP1 PUSH4 0x455CB50D EQ PUSH2 0x80 JUMPI DUP1 PUSH4 0x642F2EAF EQ PUSH2 0xA8 JUMPI DUP1 PUSH4 0x87D81789 EQ PUSH2 0xE4 JUMPI DUP1 PUSH4 0x9B22B920 EQ PUSH2 0x123 JUMPI DUP1 PUSH4 0xE93512E2 EQ PUSH2 0x14D JUMPI JUMPDEST PUSH0 DUP1 REVERT JUMPDEST CALLVALUE DUP1 ISZERO PUSH2 0x63 JUMPI PUSH0 DUP1 REVERT JUMPDEST POP PUSH2 0x7E PUSH1 0x4 DUP1 CALLDATASIZE SUB DUP2 ADD SWAP1 PUSH2 0x79 SWAP2 SWAP1 PUSH2 0x6C0 JUMP JUMPDEST PUSH2 0x17D JUMP JUMPDEST STOP JUMPDEST CALLVALUE DUP1 ISZERO PUSH2 0x8B JUMPI PUSH0 DUP1 REVERT JUMPDEST POP PUSH2 0xA6 PUSH1 0x4 DUP1 CALLDATASIZE SUB DUP2 ADD SWAP1 PUSH2 0xA1 SWAP2 SWAP1 PUSH2 0x71E JUMP JUMPDEST PUSH2 0x3A5 JUMP JUMPDEST STOP JUMPDEST CALLVALUE DUP1 ISZERO PUSH2 0xB3 JUMPI PUSH0 DUP1 REVERT JUMPDEST POP PUSH2 0xCE PUSH1 0x4 DUP1 CALLDATASIZE SUB DUP2 ADD SWAP1 PUSH2 0xC9 SWAP2 SWAP1 PUSH2 0x6C0 JUMP JUMPDEST PUSH2 0x4B2 JUMP JUMPDEST PUSH1 0x40 MLOAD PUSH2 0xDB SWAP2 SWAP1 PUSH2 0x76B JUMP JUMPDEST PUSH1 0x40 MLOAD DUP1 SWAP2 SUB SWAP1 RETURN JUMPDEST CALLVALUE DUP1 ISZERO PUSH2 0xEF JUMPI PUSH0 DUP1 REVERT JUMPDEST POP PUSH2 0x10A PUSH1 0x4 DUP1 CALLDATASIZE SUB DUP2 ADD SWAP1 PUSH2 0x105 SWAP2 SWAP1 PUSH2 0x784 JUMP JUMPDEST PUSH2 0x4C7 JUMP JUMPDEST PUSH1 0x40 MLOAD PUSH2 0x11A SWAP5 SWAP4 SWAP3 SWAP2 SWAP1 PUSH2 0x808 JUMP JUMPDEST PUSH1 0x40 MLOAD DUP1 SWAP2 SUB SWAP1 RETURN JUMPDEST CALLVALUE DUP1 ISZERO PUSH2 0x12E JUMPI PUSH0 DUP1 REVERT JUMPDEST POP PUSH2 0x137 PUSH2 0x53D JUMP JUMPDEST PUSH1 0x40 MLOAD PUSH2 0x144 SWAP2 SWAP1 PUSH2 0x76B JUMP JUMPDEST PUSH1 0x40 MLOAD DUP1 SWAP2 SUB SWAP1 RETURN JUMPDEST PUSH2 0x167 PUSH1 0x4 DUP1 CALLDATASIZE SUB DUP2 ADD SWAP1 PUSH2 0x162 SWAP2 SWAP1 PUSH2 0x875 JUMP JUMPDEST PUSH2 0x543 JUMP JUMPDEST PUSH1 0x40 MLOAD PUSH2 0x174 SWAP2 SWAP1 PUSH2 0x76B JUMP JUMPDEST PUSH1 0x40 MLOAD DUP1 SWAP2 SUB SWAP1 RETURN JUMPDEST PUSH0 PUSH1 0x1 PUSH0 DUP4 DUP2 MSTORE PUSH1 0x20 ADD SWAP1 DUP2 MSTORE PUSH1 0x20 ADD PUSH0 KECCAK256 SLOAD SWAP1 POP PUSH0 DUP1 PUSH0 DUP4 DUP2 MSTORE PUSH1 0x20 ADD SWAP1 DUP2 MSTORE PUSH1 0x20 ADD PUSH0 KECCAK256 SWAP1 POP PUSH0 PUSH20 0xFFFFFFFFFFFFFFFFFFFFFFFFFFFFFFFFFFFFFFFF AND DUP2 PUSH1 0x2 ADD PUSH0 SWAP1 SLOAD SWAP1 PUSH2 0x100 EXP SWAP1 DIV PUSH20 0xFFFFFFFFFFFFFFFFFFFFFFFFFFFFFFFFFFFFFFFF AND PUSH20 0xFFFFFFFFFFFFFFFFFFFFFFFFFFFFFFFFFFFFFFFF AND SUB PUSH2 0x236 JUMPI PUSH1 0x40 MLOAD PUSH32 0x8C379A000000000000000000000000000000000000000000000000000000000 DUP2 MSTORE PUSH1 0x4 ADD PUSH2 0x22D SWAP1 PUSH2 0x8FA JUMP JUMPDEST PUSH1 0x40 MLOAD DUP1 SWAP2 SUB SWAP1 REVERT JUMPDEST CALLER PUSH20 0xFFFFFFFFFFFFFFFFFFFFFFFFFFFFFFFFFFFFFFFF AND DUP2 PUSH1 0x1 ADD PUSH0 SWAP1 SLOAD SWAP1 PUSH2 0x100 EXP SWAP1 DIV PUSH20 0xFFFFFFFFFFFFFFFFFFFFFFFFFFFFFFFFFFFFFFFF AND PUSH20 0xFFFFFFFFFFFFFFFFFFFFFFFFFFFFFFFFFFFFFFFF AND EQ PUSH2 0x2C7 JUMPI PUSH1 0x40 MLOAD PUSH32 0x8C379A000000000000000000000000000000000000000000000000000000000 DUP2 MSTORE PUSH1 0x4 ADD PUSH2 0x2BE SWAP1 PUSH2 0x962 JUMP JUMPDEST PUSH1 0x40 MLOAD DUP1 SWAP2 SUB SWAP1 REVERT JUMPDEST DUP1 PUSH1 0x2 ADD PUSH1 0x14 SWAP1 SLOAD SWAP1 PUSH2 0x100 EXP SWAP1 DIV PUSH1 0xFF AND ISZERO PUSH2 0x319 JUMPI PUSH1 0x40 MLOAD PUSH32 0x8C379A000000000000000000000000000000000000000000000000000000000 DUP2 MSTORE PUSH1 0x4 ADD PUSH2 0x310 SWAP1 PUSH2 0x9CA JUMP JUMPDEST PUSH1 0x40 MLOAD DUP1 SWAP2 SUB SWAP1 REVERT JUMPDEST PUSH1 0x1 DUP2 PUSH1 0x2 ADD PUSH1 0x14 PUSH2 0x100 EXP DUP2 SLOAD DUP2 PUSH1 0xFF MUL NOT AND SWAP1 DUP4 ISZERO ISZERO MUL OR SWAP1 SSTORE POP DUP1 PUSH1 0x2 ADD PUSH0 SWAP1 SLOAD SWAP1 PUSH2 0x100 EXP SWAP1 DIV PUSH20 0xFFFFFFFFFFFFFFFFFFFFFFFFFFFFFFFFFFFFFFFF AND PUSH20 0xFFFFFFFFFFFFFFFFFFFFFFFFFFFFFFFFFFFFFFFF AND PUSH2 0x8FC DUP3 PUSH0 ADD SLOAD SWAP1 DUP2 ISZERO MUL SWAP1 PUSH1 0x40 MLOAD PUSH0 PUSH1 0x40 MLOAD DUP1 DUP4 SUB DUP2 DUP6 DUP9 DUP9 CALL SWAP4 POP POP POP POP ISZERO DUP1 ISZERO PUSH2 0x39F JUMPI RETURNDATASIZE PUSH0 DUP1 RETURNDATACOPY RETURNDATASIZE PUSH0 REVERT JUMPDEST POP POP POP POP JUMP JUMPDEST PUSH0 PUSH1 0x1 PUSH0 DUP5 DUP2 MSTORE PUSH1 0x20 ADD SWAP1 DUP2 MSTORE PUSH1 0x20 ADD PUSH0 KECCAK256 SLOAD EQ PUSH2 0x3F8 JUMPI PUSH1 0x40 MLOAD PUSH32 0x8C379A000000000000000000000000000000000000000000000000000000000 DUP2 MSTORE PUSH1 0x4 ADD PUSH2 0x3EF SWAP1 PUSH2 0xA32 JUMP JUMPDEST PUSH1 0x40 MLOAD DUP1 SWAP2 SUB SWAP1 REVERT JUMPDEST CALLER PUSH20 0xFFFFFFFFFFFFFFFFFFFFFFFFFFFFFFFFFFFFFFFF AND PUSH0 DUP1 DUP4 DUP2 MSTORE PUSH1 0x20 ADD SWAP1 DUP2 MSTORE PUSH1 0x20 ADD PUSH0 KECCAK256 PUSH1 0x1 ADD PUSH0 SWAP1 SLOAD SWAP1 PUSH2 0x100 EXP SWAP1 DIV PUSH20 0xFFFFFFFFFFFFFFFFFFFFFFFFFFFFFFFFFFFFFFFF AND PUSH20 0xFFFFFFFFFFFFFFFFFFFFFFFFFFFFFFFFFFFFFFFF AND EQ PUSH2 0x498 JUMPI PUSH1 0x40 MLOAD PUSH32 0x8C379A000000000000000000000000000000000000000000000000000000000 DUP2 MSTORE PUSH1 0x4 ADD PUSH2 0x48F SWAP1 PUSH2 0x962 JUMP JUMPDEST PUSH1 0x40 MLOAD DUP1 SWAP2 SUB SWAP1 REVERT JUMPDEST DUP1 PUSH1 0x1 PUSH0 DUP5 DUP2 MSTORE PUSH1 0x20 ADD SWAP1 DUP2 MSTORE PUSH1 0x20 ADD PUSH0 KECCAK256 DUP2 SWAP1 SSTORE POP POP POP JUMP JUMPDEST PUSH1 0x1 PUSH1 0x20 MSTORE DUP1 PUSH0 MSTORE PUSH1 0x40 PUSH0 KECCAK256 PUSH0 SWAP2 POP SWAP1 POP SLOAD DUP2 JUMP JUMPDEST PUSH0 PUSH1 0x20 MSTORE DUP1 PUSH0 MSTORE PUSH1 0x40 PUSH0 KECCAK256 PUSH0 SWAP2 POP SWAP1 POP DUP1 PUSH0 ADD SLOAD SWAP1 DUP1 PUSH1 0x1 ADD PUSH0 SWAP1 SLOAD SWAP1 PUSH2 0x100 EXP SWAP1 DIV PUSH20 0xFFFFFFFFFFFFFFFFFFFFFFFFFFFFFFFFFFFFFFFF AND SWAP1 DUP1 PUSH1 0x2 ADD PUSH0 SWAP1 SLOAD SWAP1 PUSH2 0x100 EXP SWAP1 DIV PUSH20 0xFFFFFFFFFFFFFFFFFFFFFFFFFFFFFFFFFFFFFFFF AND SWAP1 DUP1 PUSH1 0x2 ADD PUSH1 0x14 SWAP1 SLOAD SWAP1 PUSH2 0x100 EXP SWAP1 DIV PUSH1 0xFF AND SWAP1 POP DUP5 JUMP JUMPDEST PUSH1 0x2 SLOAD DUP2 JUMP JUMPDEST PUSH0 PUSH1 0x40 MLOAD DUP1 PUSH1 0x80 ADD PUSH1 0x40 MSTORE DUP1 CALLVALUE DUP2 MSTORE PUSH1 0x20 ADD CALLER PUSH20 0xFFFFFFFFFFFFFFFFFFFFFFFFFFFFFFFFFFFFFFFF AND DUP2 MSTORE PUSH1 0x20 ADD DUP4 PUSH20 0xFFFFFFFFFFFFFFFFFFFFFFFFFFFFFFFFFFFFFFFF AND DUP2 MSTORE PUSH1 0x20 ADD PUSH0 ISZERO ISZERO DUP2 MSTORE POP PUSH0 DUP1 PUSH1 0x2 SLOAD DUP2 MSTORE PUSH1 0x20 ADD SWAP1 DUP2 MSTORE PUSH1 0x20 ADD PUSH0 KECCAK256 PUSH0 DUP3 ADD MLOAD DUP2 PUSH0 ADD SSTORE PUSH1 0x20 DUP3 ADD MLOAD DUP2 PUSH1 0x1 ADD PUSH0 PUSH2 0x100 EXP DUP2 SLOAD DUP2 PUSH20 0xFFFFFFFFFFFFFFFFFFFFFFFFFFFFFFFFFFFFFFFF MUL NOT AND SWAP1 DUP4 PUSH20 0xFFFFFFFFFFFFFFFFFFFFFFFFFFFFFFFFFFFFFFFF AND MUL OR SWAP1 SSTORE POP PUSH1 0x40 DUP3 ADD MLOAD DUP2 PUSH1 0x2 ADD PUSH0 PUSH2 0x100 EXP DUP2 SLOAD DUP2 PUSH20 0xFFFFFFFFFFFFFFFFFFFFFFFFFFFFFFFFFFFFFFFF MUL NOT AND SWAP1 DUP4 PUSH20 0xFFFFFFFFFFFFFFFFFFFFFFFFFFFFFFFFFFFFFFFF AND MUL OR SWAP1 SSTORE POP PUSH1 0x60 DUP3 ADD MLOAD DUP2 PUSH1 0x2 ADD PUSH1 0x14 PUSH2 0x100 EXP DUP2 SLOAD DUP2 PUSH1 0xFF MUL NOT AND SWAP1 DUP4 ISZERO ISZERO MUL OR SWAP1 SSTORE POP SWAP1 POP POP PUSH1 0x2 PUSH0 DUP2 SLOAD DUP1 SWAP3 SWAP2 SWAP1 PUSH2 0x66E SWAP1 PUSH2 0xA7D JUMP JUMPDEST SWAP2 SWAP1 POP SSTORE POP PUSH1 0x1 PUSH1 0x2 SLOAD PUSH2 0x682 SWAP2 SWAP1 PUSH2 0xAC4 JUMP JUMPDEST SWAP1 POP SWAP2 SWAP1 POP JUMP JUMPDEST PUSH0 DUP1 REVERT JUMPDEST PUSH0 DUP2 SWAP1 POP SWAP2 SWAP1 POP JUMP JUMPDEST PUSH2 0x69F DUP2 PUSH2 0x68D JUMP JUMPDEST DUP2 EQ PUSH2 0x6A9 JUMPI PUSH0 DUP1 REVERT JUMPDEST POP JUMP JUMPDEST PUSH0 DUP2 CALLDATALOAD SWAP1 POP PUSH2 0x6BA DUP2 PUSH2 0x696 JUMP JUMPDEST SWAP3 SWAP2 POP POP JUMP JUMPDEST PUSH0 PUSH1 0x20 DUP3 DUP5 SUB SLT ISZERO PUSH2 0x6D5 JUMPI PUSH2 0x6D4 PUSH2 0x689 JUMP JUMPDEST JUMPDEST PUSH0 PUSH2 0x6E2 DUP5 DUP3 DUP6 ADD PUSH2 0x6AC JUMP JUMPDEST SWAP2 POP POP SWAP3 SWAP2 POP POP JUMP JUMPDEST PUSH0 DUP2 SWAP1 POP SWAP2 SWAP1 POP JUMP JUMPDEST PUSH2 0x6FD DUP2 PUSH2 0x6EB JUMP JUMPDEST DUP2 EQ PUSH2 0x707 JUMPI PUSH0 DUP1 REVERT JUMPDEST POP JUMP JUMPDEST PUSH0 DUP2 CALLDATALOAD SWAP1 POP PUSH2 0x718 DUP2 PUSH2 0x6F4 JUMP JUMPDEST SWAP3 SWAP2 POP POP JUMP JUMPDEST PUSH0 DUP1 PUSH1 0x40 DUP4 DUP6 SUB SLT ISZERO PUSH2 0x734 JUMPI PUSH2 0x733 PUSH2 0x689 JUMP JUMPDEST JUMPDEST PUSH0 PUSH2 0x741 DUP6 DUP3 DUP7 ADD PUSH2 0x6AC JUMP JUMPDEST SWAP3 POP POP PUSH1 0x20 PUSH2 0x752 DUP6 DUP3 DUP7 ADD PUSH2 0x70A JUMP JUMPDEST SWAP2 POP POP SWAP3 POP SWAP3 SWAP1 POP JUMP JUMPDEST PUSH2 0x765 DUP2 PUSH2 0x6EB JUMP JUMPDEST DUP3 MSTORE POP POP JUMP JUMPDEST PUSH0 PUSH1 0x20 DUP3 ADD SWAP1 POP PUSH2 0x77E PUSH0 DUP4 ADD DUP5 PUSH2 0x75C JUMP JUMPDEST SWAP3 SWAP2 POP POP JUMP JUMPDEST PUSH0 PUSH1 0x20 DUP3 DUP5 SUB SLT ISZERO PUSH2 0x799 JUMPI PUSH2 0x798 PUSH2 0x689 JUMP JUMPDEST JUMPDEST PUSH0 PUSH2 0x7A6 DUP5 DUP3 DUP6 ADD PUSH2 0x70A JUMP JUMPDEST SWAP2 POP POP SWAP3 SWAP2 POP POP JUMP JUMPDEST PUSH0 PUSH20 0xFFFFFFFFFFFFFFFFFFFFFFFFFFFFFFFFFFFFFFFF DUP3 AND SWAP1 POP SWAP2 SWAP1 POP JUMP JUMPDEST PUSH0 PUSH2 0x7D8 DUP3 PUSH2 0x7AF JUMP JUMPDEST SWAP1 POP SWAP2 SWAP1 POP JUMP JUMPDEST PUSH2 0x7E8 DUP2 PUSH2 0x7CE JUMP JUMPDEST DUP3 MSTORE POP POP JUMP JUMPDEST PUSH0 DUP2 ISZERO ISZERO SWAP1 POP SWAP2 SWAP1 POP JUMP JUMPDEST PUSH2 0x802 DUP2 PUSH2 0x7EE JUMP JUMPDEST DUP3 MSTORE POP POP JUMP JUMPDEST PUSH0 PUSH1 0x80 DUP3 ADD SWAP1 POP PUSH2 0x81B PUSH0 DUP4 ADD DUP8 PUSH2 0x75C JUMP JUMPDEST PUSH2 0x828 PUSH1 0x20 DUP4 ADD DUP7 PUSH2 0x7DF JUMP JUMPDEST PUSH2 0x835 PUSH1 0x40 DUP4 ADD DUP6 PUSH2 0x7DF JUMP JUMPDEST PUSH2 0x842 PUSH1 0x60 DUP4 ADD DUP5 PUSH2 0x7F9 JUMP JUMPDEST SWAP6 SWAP5 POP POP POP POP POP JUMP JUMPDEST PUSH2 0x854 DUP2 PUSH2 0x7CE JUMP JUMPDEST DUP2 EQ PUSH2 0x85E JUMPI PUSH0 DUP1 REVERT JUMPDEST POP JUMP JUMPDEST PUSH0 DUP2 CALLDATALOAD SWAP1 POP PUSH2 0x86F DUP2 PUSH2 0x84B JUMP JUMPDEST SWAP3 SWAP2 POP POP JUMP JUMPDEST PUSH0 PUSH1 0x20 DUP3 DUP5 SUB SLT ISZERO PUSH2 0x88A JUMPI PUSH2 0x889 PUSH2 0x689 JUMP JUMPDEST JUMPDEST PUSH0 PUSH2 0x897 DUP5 DUP3 DUP6 ADD PUSH2 0x861 JUMP JUMPDEST SWAP2 POP POP SWAP3 SWAP2 POP POP JUMP JUMPDEST PUSH0 DUP3 DUP3 MSTORE PUSH1 0x20 DUP3 ADD SWAP1 POP SWAP3 SWAP2 POP POP JUMP JUMPDEST PUSH32 0x5061796D656E7420646F6573206E6F7420657869737400000000000000000000 PUSH0 DUP3 ADD MSTORE POP JUMP JUMPDEST PUSH0 PUSH2 0x8E4 PUSH1 0x16 DUP4 PUSH2 0x8A0 JUMP JUMPDEST SWAP2 POP PUSH2 0x8EF DUP3 PUSH2 0x8B0 JUMP JUMPDEST PUSH1 0x20 DUP3 ADD SWAP1 POP SWAP2 SWAP1 POP JUMP JUMPDEST PUSH0 PUSH1 0x20 DUP3 ADD SWAP1 POP DUP2 DUP2 SUB PUSH0 DUP4 ADD MSTORE PUSH2 0x911 DUP2 PUSH2 0x8D8 JUMP JUMPDEST SWAP1 POP SWAP2 SWAP1 POP JUMP JUMPDEST PUSH32 0x4E6F7420617574686F72697A6564000000000000000000000000000000000000 PUSH0 DUP3 ADD MSTORE POP JUMP JUMPDEST PUSH0 PUSH2 0x94C PUSH1 0xE DUP4 PUSH2 0x8A0 JUMP JUMPDEST SWAP2 POP PUSH2 0x957 DUP3 PUSH2 0x918 JUMP JUMPDEST PUSH1 0x20 DUP3 ADD SWAP1 POP SWAP2 SWAP1 POP JUMP JUMPDEST PUSH0 PUSH1 0x20 DUP3 ADD SWAP1 POP DUP2 DUP2 SUB PUSH0 DUP4 ADD MSTORE PUSH2 0x979 DUP2 PUSH2 0x940 JUMP JUMPDEST SWAP1 POP SWAP2 SWAP1 POP JUMP JUMPDEST PUSH32 0x5061796D656E7420616C726561647920636F6D706C6574656400000000000000 PUSH0 DUP3 ADD MSTORE POP JUMP JUMPDEST PUSH0 PUSH2 0x9B4 PUSH1 0x19 DUP4 PUSH2 0x8A0 JUMP JUMPDEST SWAP2 POP PUSH2 0x9BF DUP3 PUSH2 0x980 JUMP JUMPDEST PUSH1 0x20 DUP3 ADD SWAP1 POP SWAP2 SWAP1 POP JUMP JUMPDEST PUSH0 PUSH1 0x20 DUP3 ADD SWAP1 POP DUP2 DUP2 SUB PUSH0 DUP4 ADD MSTORE PUSH2 0x9E1 DUP2 PUSH2 0x9A8 JUMP JUMPDEST SWAP1 POP SWAP2 SWAP1 POP JUMP JUMPDEST PUSH32 0x5472616E73616374696F6E206861736820616C72656164792065786973747300 PUSH0 DUP3 ADD MSTORE POP JUMP JUMPDEST PUSH0 PUSH2 0xA1C PUSH1 0x1F DUP4 PUSH2 0x8A0 JUMP JUMPDEST SWAP2 POP PUSH2 0xA27 DUP3 PUSH2 0x9E8 JUMP JUMPDEST PUSH1 0x20 DUP3 ADD SWAP1 POP SWAP2 SWAP1 POP JUMP JUMPDEST PUSH0 PUSH1 0x20 DUP3 ADD SWAP1 POP DUP2 DUP2 SUB PUSH0 DUP4 ADD MSTORE PUSH2 0xA49 DUP2 PUSH2 0xA10 JUMP JUMPDEST SWAP1 POP SWAP2 SWAP1 POP JUMP JUMPDEST PUSH32 0x4E487B7100000000000000000000000000000000000000000000000000000000 PUSH0 MSTORE PUSH1 0x11 PUSH1 0x4 MSTORE PUSH1 0x24 PUSH0 REVERT JUMPDEST PUSH0 PUSH2 0xA87 DUP3 PUSH2 0x6EB JUMP JUMPDEST SWAP2 POP PUSH32 0xFFFFFFFFFFFFFFFFFFFFFFFFFFFFFFFFFFFFFFFFFFFFFFFFFFFFFFFFFFFFFFFF DUP3 SUB PUSH2 0xAB9 JUMPI PUSH2 0xAB8 PUSH2 0xA50 JUMP JUMPDEST JUMPDEST PUSH1 0x1 DUP3 ADD SWAP1 POP SWAP2 SWAP1 POP JUMP JUMPDEST PUSH0 PUSH2 0xACE DUP3 PUSH2 0x6EB JUMP JUMPDEST SWAP2 POP PUSH2 0xAD9 DUP4 PUSH2 0x6EB JUMP JUMPDEST SWAP3 POP DUP3 DUP3 SUB SWAP1 POP DUP2 DUP2 GT ISZERO PUSH2 0xAF1 JUMPI PUSH2 0xAF0 PUSH2 0xA50 JUMP JUMPDEST JUMPDEST SWAP3 SWAP2 POP POP JUMP INVALID LOG2 PUSH5 0x6970667358 0x22 SLT KECCAK256 SWAP16 0xBF BLOBBASEFEE PUSH15 0x7CAB3091B6DB269C6194913EE48587 0xE 0x2A TSTORE 0xD4 0x27 0xA9 0xE3 0x4E JUMPI TLOAD CALLER 0xD5 0x22 PUSH5 0x736F6C6343 STOP ADDMOD BYTE STOP CALLER "
				},
				"gasEstimates": {
					"creation": {
						"codeDepositCost": "572200",
						"executionCost": "604",
						"totalCost": "572804"
					},
					"external": {
						"confirmPayment(bytes32)": "infinite",
						"createPayment(address)": "infinite",
						"nextPaymentId()": "2491",
						"payments(uint256)": "infinite",
						"storeTransactionHash(bytes32,uint256)": "27211",
						"transactions(bytes32)": "2776"
					}
				},
				"methodIdentifiers": {
					"confirmPayment(bytes32)": "3611d088",
					"createPayment(address)": "e93512e2",
					"nextPaymentId()": "9b22b920",
					"payments(uint256)": "87d81789",
					"storeTransactionHash(bytes32,uint256)": "455cb50d",
					"transactions(bytes32)": "642f2eaf"
				}
			},
			"storageLayout": {
				"storage": [
					{
						"astId": 15,
						"contract": "contracts/ShopContract.sol:PaymentContract",
						"label": "payments",
						"offset": 0,
						"slot": "0",
						"type": "t_mapping(t_uint256,t_struct(Payment)10_storage)"
					},
					{
						"astId": 19,
						"contract": "contracts/ShopContract.sol:PaymentContract",
						"label": "transactions",
						"offset": 0,
						"slot": "1",
						"type": "t_mapping(t_bytes32,t_uint256)"
					},
					{
						"astId": 21,
						"contract": "contracts/ShopContract.sol:PaymentContract",
						"label": "nextPaymentId",
						"offset": 0,
						"slot": "2",
						"type": "t_uint256"
					}
				],
				"types": {
					"t_address": {
						"encoding": "inplace",
						"label": "address",
						"numberOfBytes": "20"
					},
					"t_bool": {
						"encoding": "inplace",
						"label": "bool",
						"numberOfBytes": "1"
					},
					"t_bytes32": {
						"encoding": "inplace",
						"label": "bytes32",
						"numberOfBytes": "32"
					},
					"t_mapping(t_bytes32,t_uint256)": {
						"encoding": "mapping",
						"key": "t_bytes32",
						"label": "mapping(bytes32 => uint256)",
						"numberOfBytes": "32",
						"value": "t_uint256"
					},
					"t_mapping(t_uint256,t_struct(Payment)10_storage)": {
						"encoding": "mapping",
						"key": "t_uint256",
						"label": "mapping(uint256 => struct PaymentContract.Payment)",
						"numberOfBytes": "32",
						"value": "t_struct(Payment)10_storage"
					},
					"t_struct(Payment)10_storage": {
						"encoding": "inplace",
						"label": "struct PaymentContract.Payment",
						"members": [
							{
								"astId": 3,
								"contract": "contracts/ShopContract.sol:PaymentContract",
								"label": "amount",
								"offset": 0,
								"slot": "0",
								"type": "t_uint256"
							},
							{
								"astId": 5,
								"contract": "contracts/ShopContract.sol:PaymentContract",
								"label": "buyer",
								"offset": 0,
								"slot": "1",
								"type": "t_address"
							},
							{
								"astId": 7,
								"contract": "contracts/ShopContract.sol:PaymentContract",
								"label": "seller",
								"offset": 0,
								"slot": "2",
								"type": "t_address"
							},
							{
								"astId": 9,
								"contract": "contracts/ShopContract.sol:PaymentContract",
								"label": "isCompleted",
								"offset": 20,
								"slot": "2",
								"type": "t_bool"
							}
						],
						"numberOfBytes": "96"
					},
					"t_uint256": {
						"encoding": "inplace",
						"label": "uint256",
						"numberOfBytes": "32"
					}
				}
			},
			"userdoc": {
				"kind": "user",
				"methods": {},
				"version": 1
			}
		}
	}
}